:020000040800F2
:1000000000280020D5300008852D00088D2D00081F
:10001000952D00089D2D0008A52D0008000000006A
:10002000000000000000000000000000AD2D0008EE
:10003000B92D000800000000C52D0008D12D0008D2
:100040001D3100081D3100081D3100081D31000858
:100050001D3100081D3100081D3100081D31000848
:100060001D3100081D3100081D3100081D31000838
:100070001D3100081D3100081D3100081D31000828
:10008000DD2D00081D3100081D3100081D3100085C
:100090001D3100081D3100081D3100081D31000808
:1000A0001D3100081D3100081D3100081D310008F8
:1000B0001D3100081D310008000000001D3100083E
:1000C0001D31000800000000000000001D31000884
:1000D000000000001D310008F12D000800000000A4
:1000E0001D3100081D3100081D310008000000000E
:1000F0000000000000000000000000000000000000
:0C01000000000000000000005FF808F1A3
:10010C004FF0FF0C1CEAD0521EBF1CEAD15392EAEE
:10011C000C0F93EA0C0F6FD01A4480EA010C4002CA
:10012C0018BF5FEA41211ED04FF0006343EA501024
:10013C0043EA5111A0FB01310CF00040B1F5000F66
:10014C003EBF490041EAD3715B0040EA010062F115
:10015C007F02FD2A1DD8B3F1004F40EBC25008BFFF
:10016C0020F00100704790F0000F0CF0004C08BF1D
:10017C0049024CEA502040EA51207F3AC2BFD2F1EA
:10018C00FF0340EAC250704740F400004FF00003F8
:10019C00013A5DDC12F1190FDCBF00F00040704732
:1001AC00C2F10002410021FA02F1C2F1200200FA70
:1001BC0002FC5FEA310040F1000053EA4C0308BF37
:1001CC0020EADC70704792F0000F00F0004C02BF88
:1001DC00400010F4000F013AF9D040EA0C0093F003
:1001EC00000F01F0004C02BF490011F4000F013B5D
:1001FC00F9D041EA0C018FE70CEAD15392EA0C0FCB
:10020C0018BF93EA0C0F0AD030F0004C18BF31F035
:10021C00004CD8D180EA010000F00040704790F00B
:10022C00000F17BF90F0004F084691F0000F91F0AF
:10023C00004F14D092EA0C0F01D142020FD193EA75
:10024C000C0F03D14B0218BF084608D180EA0100FD
:10025C0000F0004040F0FE4040F40000704740F0D9
:10026C00FE4040F44000704780F0004002E000BFC8
:10027C0081F0004142001FBF5FEA410392EA030F85
:10028C007FEA226C7FEA236C6AD04FEA1262D2EBCF
:10029C001363C1BFD218414048404140B8BF5B42D4
:1002AC00192B88BF704710F0004F40F4000020F06D
:1002BC007F4018BF404211F0004F41F4000121F083
:1002CC007F4118BF494292EA030F3FD0A2F10102CD
:1002DC0041FA03FC10EB0C00C3F1200301FA03F10B
:1002EC0000F0004302D5494260EB4000B0F5000F2E
:1002FC0013D3B0F1807F06D340084FEA310102F1ED
:10030C000102FE2A51D2B1F1004F40EBC25008BF9E
:10031C0020F0010040EA03007047490040EB000068
:10032C00013A28BFB0F5000FEDD2B0FA80FCACF169
:10033C00080CB2EB0C0200FA0CF0AABF00EBC25096
:10034C0052421843BCBFD0401843704792F0000F84
:10035C0081F4000106BF80F400000132013BB5E7D7
:10036C004FEA41037FEA226C18BF7FEA236C21D04D
:10037C0092EA030F04D092F0000F08BF08467047B2
:10038C0090EA010F1CBF0020704712F07F4F04D180
:10039C00400028BF40F00040704712F100723CBF93
:1003AC0000F50000704700F0004343F0FE4040F4BD
:1003BC00000070477FEA226216BF08467FEA23637B
:1003CC000146420206BF5FEA412390EA010F40F466
:1003DC00800070474FF0000304E000BF10F00043B2
:1003EC0048BF40425FEA000C08BF704743F0964399
:1003FC0001464FF000001CE050EA010208BF7047B4
:10040C004FF000030AE000BF50EA010208BF70473A
:10041C0011F0004302D5404261EB41015FEA010C4F
:10042C0002BF84460146002043F0B64308BFA3F147
:10043C008053A3F50003BCFA8CF2083AA3EBC25329
:10044C0010DB01FA02FC634400FA02FCC2F1200248
:10045C00BCF1004F20FA02F243EB020008BF20F07F
:10046C000100704702F1200201FA02FCC2F12002E5
:10047C0050EA4C0021FA02F243EB020008BF20EADA
:10048C00DC7070470348044B834202D0034B03B12A
:10049C0018477047200000202000002000000000BA
:1004AC000548064B1B1AD90F01EBA301491002D0CA
:1004BC00034B03B118477047200000202000002098
:1004CC000000000010B5064C237843B9FFF7DAFFA3
:1004DC00044B13B10448AFF300800123237010BD0B
:1004EC0020000020000000003038000808B5054B43
:1004FC001BB105490548AFF30080BDE80840FFF784
:10050C00CFBF00BF000000002400002030380008DE
:10051C0003460244934200D1704703F8011BF9E7EC
:10052C0070B500260C4D0D4B5B1B9C10A64209D1DF
:10053C00002603F077F90A4D0A4B5B1B9C10A64270
:10054C0005D170BD55F8043B98470136EEE755F8D8
:10055C00043B98470136F2E7A8380008A838000891
:10056C00A8380008AC38000880B400AF00BFBD4606
:10057C0080BC704780B584B000AF78607B68002B7E
:10058C0001D101232BE17B6893F83D30DBB2002BCA
:10059C0006D17B68002283F83C20786802F05EFC70
:1005AC007B68242283F83D207B681B681A687B6873
:1005BC001B6822F001021A607B681B681A687B6852
:1005CC001B6842F400421A607B681B681A687B68DF
:1005DC001B6822F400421A6000F060FDF8607B6832
:1005EC005B68814A934207D8FB68804A934294BF68
:1005FC0001230023DBB206E0FB687D4A934294BFE3
:10060C0001230023DBB2002B01D00123E7E0FB68C0
:10061C00784AA2FB03239B0CBB607B681B685B685E
:10062C0023F03F017B681B68BA680A435A607B68F9
:10063C001B681B6A23F03F017B685B686A4A934224
:10064C0002D8BB68013309E0BB684FF4967202FB19
:10065C0003F3694AA2FB03239B0901337A681268EE
:10066C000B4313627B681B68DB6923F44F4222F057
:10067C00FF027B685B685C498B4219D8FB68591E8A
:10068C007B685B685B00B1FBF3F3591C40F6FC73B1
:10069C000B40002B0AD0FB68591E7B685B685B0023
:1006AC00B1FBF3F30133C3F30B0351E004234FE02D
:1006BC007B689B68002B11D1FB68581E7B685968BE
:1006CC000B465B000B44B0FBF3F30133C3F30B039A
:1006DC00002B0CBF01230023DBB212E0FB68581E79
:1006EC007B6859680B469B000B4499000B44B0FB8C
:1006FC00F3F30133C3F30B03002B0CBF01230023D3
:10070C00DBB2002B01D0012322E07B689B68002B1D
:10071C000ED1FB68581E7B6859680B465B000B4476
:10072C00B0FBF3F30133C3F30B0343F400430FE0CB
:10073C00FB68581E7B6859680B469B000B4499005C
:10074C000B44B0FBF3F30133C3F30B0343F440430B
:10075C00796809681343CB617B681B681B6823F0BD
:10076C00C0017B68DA697B681B6A1A437B681B686B
:10077C000A431A607B681B689B6823F4034323F0CD
:10078C00FF037A6811697A68D26811437A68126833
:10079C000B4393607B681B68DB6823F0FF017B686D
:1007AC005A697B689B691A437B681B680A43DA6049
:1007BC007B681B681A687B681B6842F001021A6030
:1007CC007B6800221A647B68202283F83D207B68BA
:1007DC0000221A637B68002283F83E20002318460F
:1007EC001037BD4680BD00BFA08601007F841E006F
:1007FC00FF083D0083DE1B43D34D621080B500AF74
:10080C00084B1B68074A43F010031360032001F0E8
:10081C00FFF80F2000F008F802F0EEFA002318465B
:10082C0080BD00BF0020024080B582B000AF786070
:10083C00124B1A68124B1B7819464FF47A73B3FBA0
:10084C00F1F3B2FBF3F3184601F017F90346002B52
:10085C0001D001230EE07B680F2B0AD800227968A7
:10086C004FF0FF3001F0DFF8064A7B68136000237D
:10087C0000E0012318460837BD4680BD000000206B
:10088C00080000200400002080B400AF054B1B784A
:10089C001A46054B1B681344034A136000BFBD4640
:1008AC0080BC7047080000203C00002080B400AFE2
:1008BC00024B1B681846BD4680BC70473C000020AC
:1008CC0080B584B000AF7860FFF7F0FFB8607B684C
:1008DC00FB60FB68B3F1FF3F05D00A4B1B781A464F
:1008EC00FB681344FB6000BFFFF7E0FF0246BB68E8
:1008FC00D31AFA689A42F7D800BF00BF1037BD462A
:10090C0080BD00BF0800002080B586B000AF7860C5
:10091C007B68002B01D1012372E27B681B6803F01A
:10092C000103002B00F08780924B5B6803F00C03F3
:10093C00042B0CD08F4B5B6803F00C03082B12D1EB
:10094C008C4B5B6803F48033B3F5803F0BD1894B40
:10095C001B6803F40033002B6CD07B685B68002BA6
:10096C0068D101234CE27B685B68B3F5803F06D10C
:10097C00804B1B687F4A43F4803313602EE07B6806
:10098C005B68002B0CD17B4B1B687A4A23F48033B9
:10099C001360784B1B68774A23F4802313601DE0A7
:1009AC007B685B68B3F5A02F0CD1724B1B68714A46
:1009BC0043F4802313606F4B1B686E4A43F48033FF
:1009CC0013600BE06B4B1B686A4A23F48033136093
:1009DC00684B1B68674A23F4802313607B685B6851
:1009EC00002B13D0FFF762FF386108E0FFF75EFFC2
:1009FC0002463B69D31A642B01D9032300E25D4BF9
:100A0C001B6803F40033002BF0D014E0FFF74EFF0B
:100A1C00386108E0FFF74AFF02463B69D31A642BA2
:100A2C0001D90323ECE1534B1B6803F40033002B77
:100A3C00F0D100E000BF7B681B6803F00203002BC1
:100A4C0063D04C4B5B6803F00C03002B0BD0494B71
:100A5C005B6803F00C03082B1CD1464B5B6803F45A
:100A6C008033002B16D1434B1B6803F00203002B81
:100A7C0005D07B681B69012B01D00123C0E13D4BE4
:100A8C001B6823F0F8027B685B69DB003949134370
:100A9C000B603AE07B681B69002B20D0364B01229F
:100AAC001A60FFF703FF386108E0FFF7FFFE02460C
:100ABC003B69D31A022B01D90323A1E12D4B1B68EF
:100ACC0003F00203002BF0D02A4B1B6823F0F80232
:100ADC007B685B69DB00274913430B6015E0264BF1
:100AEC0000221A60FFF7E2FE386108E0FFF7DEFE35
:100AFC0002463B69D31A022B01D9032380E11D4B1B
:100B0C001B6803F00203002BF0D17B681B6803F019
:100B1C000803002B3AD07B689B69002B19D0174B2C
:100B2C0001221A60FFF7C2FE386108E0FFF7BEFE33
:100B3C0002463B69D31A022B01D9032360E10D4B0A
:100B4C005B6A03F00203002BF0D0012000F0CEFA18
:100B5C001CE00A4B00221A60FFF7A8FE38610FE078
:100B6C00FFF7A4FE02463B69D31A022B08D90323D4
:100B7C0046E100BF001002400000424280044242A5
:100B8C00924B5B6A03F00203002BE9D17B681B6874
:100B9C0003F00403002B00F0A6800023FB758B4BA5
:100BAC00DB6903F08053002B0DD1884BDB69874A3E
:100BBC0043F08053D361854BDB6903F08053BB60FA
:100BCC00BB680123FB75824B1B6803F48073002BFD
:100BDC0018D17F4B1B687E4A43F480731360FFF778
:100BEC0065FE386108E0FFF761FE02463B69D31AE7
:100BFC00642B01D9032303E1754B1B6803F4807349
:100C0C00002BF0D07B68DB68012B06D16F4B1B6A85
:100C1C006E4A43F0010313622DE07B68DB68002B06
:100C2C000CD16A4B1B6A694A23F001031362674BB0
:100C3C001B6A664A23F0040313621CE07B68DB68C2
:100C4C00052B0CD1614B1B6A604A43F00403136201
:100C5C005E4B1B6A5D4A43F0010313620BE05B4B76
:100C6C001B6A5A4A23F001031362584B1B6A574AFA
:100C7C0023F0040313627B68DB68002B15D0FFF7AD
:100C8C0015FE38610AE0FFF711FE02463B69D31AE4
:100C9C0041F28832934201D90323B1E04B4B1B6ADA
:100CAC0003F00203002BEED014E0FFF7FFFD3861D8
:100CBC000AE0FFF7FBFD02463B69D31A41F288328A
:100CCC00934201D903239BE0404B1B6A03F00203C0
:100CDC00002BEED1FB7D012B05D13C4BDB693B4A54
:100CEC0023F08053D3617B68DB69002B00F0878095
:100CFC00364B5B6803F00C03082B61D07B68DB6917
:100D0C00022B46D1334B00221A60FFF7CFFD38611E
:100D1C0008E0FFF7CBFD02463B69D31A022B01D941
:100D2C0003236DE0294B1B6803F00073002BF0D1FB
:100D3C007B681B6AB3F5803F08D1244B5B6823F4B6
:100D4C0000327B689B68214913434B601F4B5B68E7
:100D5C0023F474127B68196A7B685B6A0B431B492A
:100D6C0013434B601B4B01221A60FFF79FFD386148
:100D7C0008E0FFF79BFD02463B69D31A022B01D911
:100D8C0003233DE0114B1B6803F00073002BF0D0E4
:100D9C0035E0104B00221A60FFF788FD386108E03F
:100DAC00FFF784FD02463B69D31A022B01D90323BA
:100DBC0026E0064B1B6803F00073002BF0D11EE0FD
:100DCC007B68DB69012B07D1012319E0001002407D
:100DDC0000700040600042420B4B5B68FB60FB689C
:100DEC0003F480327B681B6A9A4206D1FB6803F4D9
:100DFC0070127B685B6A9A4201D0012300E00023E9
:100E0C0018461837BD4680BD0010024080B584B02E
:100E1C0000AF786039607B68002B01D10123D0E0F2
:100E2C006A4B1B6803F007033A689A4210D9674B68
:100E3C001B6823F0070265493B6813430B60634B47
:100E4C001B6803F007033A689A4201D00123B8E00B
:100E5C007B681B6803F00203002B20D07B681B68A7
:100E6C0003F00403002B05D0594B5B68584A43F43C
:100E7C00E06353607B681B6803F00803002B05D00C
:100E8C00534B5B68524A43F460535360504B5B685E
:100E9C0023F0F0027B689B684D4913434B607B68E1
:100EAC001B6803F00103002B40D07B685B68012BAF
:100EBC0007D1474B1B6803F40033002B15D10123DA
:100ECC007FE07B685B68022B07D1414B1B6803F00A
:100EDC000073002B09D1012373E03D4B1B6803F019
:100EEC000203002B01D101236BE0394B5B6823F02B
:100EFC0003027B685B68364913434B60FFF7D6FCF3
:100F0C00F8600AE0FFF7D2FC0246FB68D31A41F204
:100F1C008832934201D9032353E02D4B5B6803F0D5
:100F2C000C027B685B689B009A42EBD1274B1B68D9
:100F3C0003F007033A689A4210D2244B1B6823F043
:100F4C00070222493B6813430B60204B1B6803F0DC
:100F5C0007033A689A4201D0012332E07B681B6890
:100F6C0003F00403002B08D0194B5B6823F4E062F8
:100F7C007B68DB68164913434B607B681B6803F086
:100F8C000803002B09D0124B5B6823F460527B687A
:100F9C001B69DB000E4913434B6000F021F802463D
:100FAC000B4B5B681B0903F00F030A49CB5C22FA5D
:100FBC0003F3094A1360094B1B681846FFF734FC0E
:100FCC00002318461037BD4680BD00BF00200240EC
:100FDC00001002407C3800080000002004000020B3
:100FEC0080B487B000AF0023FB600023BB600023FC
:100FFC007B6100237B6000233B611E4B5B68FB60C5
:10100C00FB6803F00C03042B02D0082B03D027E061
:10101C00194B3B6127E0FB689B0C03F00F03174A4D
:10102C00D35C7B60FB6803F48033002B10D0114B36
:10103C005B685B0C03F00103114AD35CBB607B68FB
:10104C000D4A03FB02F2BB68B2FBF3F37B6104E0D5
:10105C007B680C4A02FB03F37B617B693B6102E01A
:10106C00054B3B6100BF3B6918461C37BD4680BC35
:10107C00704700BF0010024000127A00943800083C
:10108C00A438000800093D0080B400AF024B1B6877
:10109C001846BD4680BC70470000002080B500AFEC
:1010AC00FFF7F2FF0246054B5B681B0A03F00703D0
:1010BC000349CB5C22FA03F3184680BD00100240B2
:1010CC008C38000880B500AFFFF7DEFF0246054BF9
:1010DC005B68DB0A03F007030349CB5C22FA03F3DA
:1010EC00184680BD001002408C38000880B485B0D2
:1010FC0000AF78600A4B1B680A4AA2FB03235B0A09
:10110C007A6802FB03F3FB6000BFFB685A1EFA60AF
:10111C00002BF9D100BF00BF1437BD4680BC70470F
:10112C0000000020D34D621080B48BB000AF78600B
:10113C00396000237B6200233B6261E101227B6A00
:10114C0002FA03F3FB613B681B68FA691340BB614D
:10115C00BA69FB699A4240F050813B685B68974AD8
:10116C0093425ED0954A934275D8954A934258D093
:10117C00934A93426FD8934A934252D0914A9342E6
:10118C0069D8914A93424CD08F4A934263D88F4A84
:10119C00934246D08D4A93425DD8122B2AD8122BFB
:1011AC0059D801A252F823F02F1200080912000896
:1011BC001B1200085D12000863120008631200087D
:1011CC00631200086312000863120008631200081F
:1011DC00631200086312000863120008631200080F
:1011EC006312000863120008631200081112000851
:1011FC0025120008764A934213D02CE03B68DB683A
:10120C003B6229E03B68DB6804333B6224E03B68CB
:10121C00DB6808333B621FE03B68DB680C333B62E6
:10122C001AE03B689B68002B02D104233B6213E05D
:10123C003B689B68012B05D108233B627B68FA69EC
:10124C001A6109E008233B627B68FA695A6103E082
:10125C0000233B6200E000BFBB69FF2B01D87B6819
:10126C0001E07B6804337B61BB69FF2B02D87B6A8E
:10127C009B0002E07B6A083B9B003B617B691A6820
:10128C000F213B6901FA03F3DB431A40396A3B69CE
:10129C0001FA03F31A437B691A603B685B6803F03D
:1012AC008053002B00F0A9804A4B9B69494A43F0BC
:1012BC0001039361474B9B6903F00103BB60BB685F
:1012CC00454A7B6A9B08023352F82330FB607B6AE9
:1012DC0003F003039B000F2202FA03F3DB43FA68CB
:1012EC001340FB607B683D4A93420DD07B683C4ABF
:1012FC00934207D07B683B4A934201D1022304E01E
:10130C00032302E0012300E000237A6A02F00302C7
:10131C0092009340FA681343FB602F497B6A9B0849
:10132C000233FA6841F823203B685B6803F48013AE
:10133C00002B06D02C4B9A682B49BB6913438B604E
:10134C0006E0294B9A68BB69DB43274913408B6045
:10135C003B685B6803F40013002B06D0224BDA6861
:10136C002149BB691343CB6006E01F4BDA68BB69AC
:10137C00DB431D491340CB603B685B6803F40033CF
:10138C00002B06D0184B5A681749BB6913434B60A6
:10139C0006E0154B5A68BB69DB43134913404B609D
:1013AC003B685B6803F48033002B1FD00E4B1A682C
:1013BC000D49BB6913430B601FE000BF00003210E6
:1013CC00000031100000221000002110000012104B
:1013DC000000111000100240000001400008014004
:1013EC00000C014000100140000401400B4B1A6836
:1013FC00BB69DB43094913400B607B6A01337B6299
:10140C003B681A687B6A22FA03F3002B7FF496AED2
:10141C0000BF00BF2C37BD4680BC704700040140A4
:10142C0080B483B000AF78600B467B8013467B7032
:10143C007B78002B03D07A887B681A6103E07B8869
:10144C001A047B681A6100BF0C37BD4680BC70471C
:10145C0080B485B000AF78600023FB607B68002B04
:10146C0001D1012343E07B681B681A46224B1344CD
:10147C00224AA2FB03231B099A007B681A647B682F
:10148C001F4ADA637B68022283F821207B681B6881
:10149C001B68FB60FB6823F47F5323F03003FB6075
:1014AC007B685A687B689B681A437B68DB681A43C5
:1014BC007B681B691A437B685B691A437B689B6971
:1014CC001A437B68DB691343FA681343FB607B6840
:1014DC001B68FA681A607B6800229A637B68012299
:1014EC0083F821207B68002283F8202000231846F3
:1014FC001437BD4680BC7047F8FFFDBFCDCCCCCCBB
:10150C000000024080B485B000AF78600023FB730C
:10151C007B6893F82130DBB2022B08D07B68042265
:10152C009A637B68002283F82020012320E07B68EB
:10153C001B681A687B681B6822F00E021A607B68B5
:10154C001B681A687B681B6822F001021A607B68B2
:10155C001A6C7B68DB6B012101FA02F25A607B6822
:10156C00012283F821207B68002283F82020FB7B5A
:10157C0018461437BD4680BC7047000080B584B057
:10158C0000AF78600023FB737B6893F82130DBB2EB
:10159C00022B05D07B6804229A630123FB7351E074
:1015AC007B681B681A687B681B6822F00E021A6045
:1015BC007B681B681A687B681B6822F001021A6042
:1015CC007B681B68224A934229D07B681B68214A9E
:1015DC00934222D07B681B681F4A93421AD07B68C7
:1015EC001B681E4A934212D07B681B681C4A9342AC
:1015FC000AD07B681B681B4A934202D14FF48013BC
:10160C000EE04FF080730BE04FF4803308E04FF4A2
:10161C00805305E04FF4807302E0102300E00123B7
:10162C00114A53607B68012283F821207B680022D9
:10163C0083F820207B685B6B002B03D07B685B6B93
:10164C0078689847FB7B18461037BD4680BD00BFB5
:10165C00080002401C0002403000024044000240DE
:10166C00580002406C0002400000024080B584B07B
:10167C0000AF78607B68DB6B1B68FB607B681B686A
:10168C001B68BB607B681B6C04229A40FB68134090
:10169C00002B4FD0BB6803F00403002B4AD07B68AF
:1016AC001B681B6803F02003002B07D17B681B68A9
:1016BC001A687B681B6822F004021A607B681B683E
:1016CC00664A934229D07B681B68654A934222D0B4
:1016DC007B681B68634A93421AD07B681B68624A1A
:1016EC00934212D07B681B68604A93420AD07B6895
:1016FC001B685F4A934202D14FF480030EE04FF017
:10170C0080630BE04FF4802308E04FF4804305E046
:10171C004FF4806302E0402300E00423554A5360F9
:10172C007B68DB6A002B00F094807B68DB6A78684E
:10173C0098478EE07B681B6C02229A40FB68134032
:10174C00002B56D0BB6803F00203002B51D07B68F2
:10175C001B681B6803F02003002B0BD17B681B68F4
:10176C001A687B681B6822F00A021A607B680122E7
:10177C0083F821207B681B68384A934229D07B6808
:10178C001B68374A934222D07B681B68354A9342C8
:10179C001AD07B681B68344A934212D07B681B6852
:1017AC00324A93420AD07B681B68314A934202D179
:1017BC004FF400130EE04FF000730BE04FF40033C6
:1017CC0008E04FF4005305E04FF4007302E02023CF
:1017DC0000E00223274A53607B68002283F8202014
:1017EC007B689B6A002B34D07B689B6A786898472F
:1017FC002FE07B681B6C08229A40FB681340002B7F
:10180C0028D0BB6803F00803002B23D07B681B682F
:10181C001A687B681B6822F00E021A607B681A6CCF
:10182C007B68DB6B012101FA02F25A607B680122B2
:10183C009A637B68012283F821207B68002283F85D
:10184C0020207B681B6B002B04D07B681B6B78689B
:10185C00984700BF00BF1037BD4680BD080002404E
:10186C001C0002403000024044000240580002407C
:10187C006C0002400000024080B485B000AF78607C
:10188C007B6803F00703FB600C4BDB68BB60BA683A
:10189C004FF6FF031340BB60FB681A02BB6813438F
:1018AC0043F0BF6343F40033BB60044ABB68D360AE
:1018BC0000BF1437BD4680BC704700BF00ED00E090
:1018CC0080B400AF044BDB681B0A03F00703184617
:1018DC00BD4680BC704700BF00ED00E080B483B013
:1018EC0000AF0346FB7197F90730002B0BDBFB793C
:1018FC0003F01F02064997F907305B09012000FA33
:10190C0002F241F8232000BF0C37BD4680BC704763
:10191C0000E100E080B483B000AF03463960FB7196
:10192C0097F90730002B0ADB3B68DAB20C4997F9C0
:10193C0007301201D2B20B4483F800230AE03B6853
:10194C00DAB20849FB7903F00F03043B1201D2B25F
:10195C000B441A7600BF0C37BD4680BC704700BFE5
:10196C0000E100E000ED00E080B489B000AFF86069
:10197C00B9607A60FB6803F00703FB61FB69C3F194
:10198C000703042B28BF0423BB61FB690433062B1C
:10199C0002D9FB69033B00E000237B614FF0FF326F
:1019AC00BB6902FA03F3DA43BB681A407B699A40BD
:1019BC004FF0FF317B6901FA03F3D9437B680B408D
:1019CC00134318462437BD4680BC704780B582B09F
:1019DC0000AF78607B68013BB3F1807F01D30123BA
:1019EC000FE00A4A7B68013B53600F214FF0FF3038
:1019FC00FFF790FF054B00229A60044B07221A60F8
:101A0C00002318460837BD4680BD00BF10E000E03B
:101A1C0080B582B000AF78607868FFF72DFF00BF0B
:101A2C000837BD4680BD80B586B000AF0346B960AF
:101A3C007A60FB7300237B61FFF742FF78617A6861
:101A4C00B9687869FFF790FF024697F90F30114695
:101A5C001846FFF75FFF00BF1837BD4680BD80B545
:101A6C0082B000AF0346FB7197F907301846FFF7B9
:101A7C0035FF00BF0837BD4680BD80B582B000AFD2
:101A8C0078607868FFF7A2FF034618460837BD4612
:101A9C0080BD80B582B000AF78607B68002B01D12F
:101AAC00012376E07B685B6A002B08D17B685B685E
:101ABC00B3F5827F09D07B680022DA6105E07B6890
:101ACC0000221A617B6800225A617B6800229A62AC
:101ADC007B6893F85130DBB2002B06D17B68002277
:101AEC0083F85020786801F0F9F97B68022283F8BA
:101AFC0051207B681B681A687B681B6822F04002C7
:101B0C001A607B685B6803F482727B689B6803F4E1
:101B1C0004431A437B68DB6803F400631A437B6855
:101B2C001B6903F002031A437B685B6903F0010332
:101B3C001A437B689B6903F400731A437B68DB6967
:101B4C0003F038031A437B681B6A03F0800342EAF4
:101B5C0003017B689B6A03F400527B681B680A4391
:101B6C001A607B689B691A0C7B681B6802F0040284
:101B7C005A607B681B68DA697B681B6822F4006218
:101B8C00DA617B6800225A657B68012283F8512058
:101B9C00002318460837BD4680BD80B582B000AF23
:101BAC0078607B68002B01D1012342E07B6893F8BD
:101BBC004130DBB2002B06D17B68002283F8402039
:101BCC00786801F0D5F97B68242283F841207B6882
:101BDC001B68DA687B681B6822F40052DA6078684C
:101BEC0000F052FE7B681B681A697B681B6822F444
:101BFC0090421A617B681B685A697B681B6822F0EB
:101C0C002A025A617B681B68DA687B681B6842F49D
:101C1C000052DA607B6800225A647B68202283F8C9
:101C2C0041207B68202283F842207B6800225A6383
:101C3C00002318460837BD4680BD80B582B000AF82
:101C4C0078607B68002B01D101234AE07B6893F814
:101C5C004130DBB2002B06D17B68002283F8402098
:101C6C00786801F085F97B68242283F841207B6831
:101C7C001B68DA687B681B6822F40052DA607868AB
:101C8C0000F002FE7B681B681A697B681B6822F4F3
:101C9C0090421A617B681B685A697B681B6822F04A
:101CAC0022025A617B681B685A697B681B6842F088
:101CBC0008025A617B681B68DA687B681B6842F40F
:101CCC000052DA607B6800225A647B68202283F819
:101CDC0041207B68202283F842207B6800225A63D3
:101CEC00002318460837BD4680BD80B58AB002AFC8
:101CFC00F860B9603B601346FB8000237B61FB6896
:101D0C0093F84130DBB2202B75D1BB68002B02D08D
:101D1C00FB88002B01D101236EE0FB6800225A6482
:101D2C00FB68212283F84120FEF7C0FD7861FB6837
:101D3C00FA889A84FB68FA88DA84FB689B68B3F5A6
:101D4C00805F08D1FB681B69002B04D10023FB6169
:101D5C00BB68BB6103E0BB68FB610023BB612EE089
:101D6C003B6800937B6900228021F86800F098FBA7
:101D7C000346002B05D0FB68202283F84120032367
:101D8C003AE0FB69002B0BD1BB691B881A46FB6838
:101D9C001B68C2F308025A60BB690233BB6107E0DF
:101DAC00FB691A78FB681B685A60FB690133FB619D
:101DBC00FB68DB8C9BB2013B9AB2FB68DA84FB6854
:101DCC00DB8C9BB2002BCBD13B6800937B69002250
:101DDC004021F86800F064FB0346002B05D0FB683B
:101DEC00202283F84120032306E0FB68202283F89D
:101DFC004120002300E0022318462037BD4680BD59
:101E0C0080B58AB002AFF860B9603B601346FB80C6
:101E1C0000237B61FB6893F84230DBB2202B40F04F
:101E2C008180BB68002B02D0FB88002B01D10123E1
:101E3C0079E0FB6800225A64FB68222283F8422076
:101E4C00FB6800221A63FEF731FD7861FB68FA88A3
:101E5C009A85FB68FA88DA85FB689B68B3F5805F26
:101E6C0008D1FB681B69002B04D10023FB61BB6804
:101E7C00BB6103E0BB68FB610023BB6147E03B68CF
:101E8C0000937B6900222021F86800F009FB0346CF
:101E9C00002B05D0FB68202283F84220032342E06C
:101EAC00FB69002B0CD1FB681B685B689BB2C3F30E
:101EBC0008039AB2BB691A80BB690233BB611FE08D
:101ECC00FB689B68B3F5805F07D0FB689B68002BB1
:101EDC000AD1FB681B69002B06D1FB681B685B6889
:101EEC00DAB2FB691A7008E0FB681B685B68DBB24E
:101EFC0003F07F03DAB2FB691A70FB690133FB61F3
:101F0C00FB68DB8D9BB2013B9AB2FB68DA85FB6800
:101F1C00DB8D9BB2002BB2D1FB68202283F84220D0
:101F2C00002300E0022318462037BD4680BD000088
:101F3C0080B5BAB000AF78607B681B681B68C7F8C7
:101F4C00E4307B681B68DB68C7F8E0307B681B6893
:101F5C005B69C7F8DC300023C7F8D8300023C7F81A
:101F6C00D430D7F8E43003F00F03C7F8D830D7F8E3
:101F7C00D830002B0FD1D7F8E43003F02003002B1E
:101F8C0009D0D7F8E03003F02003002B03D0786899
:101F9C0000F0BCFB5BE2D7F8D830002B00F0DE8001
:101FAC00D7F8DC3003F00103002B06D1D7F8E03072
:101FBC0003F49073002B00F0D180D7F8E43003F0D9
:101FCC000103002B0BD0D7F8E03003F48073002B07
:101FDC0005D07B685B6C43F001027B685A64D7F8D0
:101FEC00E43003F00403002B0BD0D7F8DC3003F003
:101FFC000103002B05D07B685B6C43F002027B680D
:10200C005A64D7F8E43003F00203002B0BD0D7F856
:10201C00DC3003F00103002B05D07B685B6C43F0D4
:10202C0004027B685A64D7F8E43003F00803002BF1
:10203C0011D0D7F8E03003F02003002B05D1D7F8EE
:10204C00DC3003F00103002B05D07B685B6C43F0A4
:10205C0008027B685A647B685B6C002B00F0F28191
:10206C00D7F8E43003F02003002B08D0D7F8E03089
:10207C0003F02003002B02D0786800F047FB7B684C
:10208C001B685B6903F04003002B14BF0123002382
:10209C00DBB2C7F8D4307B685B6C03F00803002B11
:1020AC0003D1D7F8D430002B4FD0786800F051FA18
:1020BC007B681B685B6903F04003002B41D07B6895
:1020CC001B681433C7F89C30D7F89C3053E8003F9A
:1020DC00C7F89830D7F8983023F04003C7F8D030C1
:1020EC007B681B681433D7F8D020C7F8A820C7F832
:1020FC00A430D7F8A410D7F8A82041E80023C7F8DB
:10210C00A030D7F8A030002BD9D17B68DB6B002B2B
:10211C0013D07B68DB6B7E4A5A637B68DB6B18469B
:10212C00FFF72CFA0346002B16D07B68DB6B5B6B3E
:10213C007A68D26B104698470EE0786800F09CF9EC
:10214C000AE0786800F098F906E0786800F094F9F5
:10215C007B6800225A6475E100BF73E17B681B6BDE
:10216C00012B40F04F81D7F8E43003F01003002B23
:10217C0000F04881D7F8E03003F01003002B00F09A
:10218C0041810023BB607B681B681B68BB607B685C
:10219C001B685B68BB60BB687B681B685B6903F092
:1021AC004003002B00F0B6807B68DB6B1B685B6820
:1021BC00A7F8BE30B7F8BE30002B00F045817B6825
:1021CC009B8DB7F8BE209A4280F03E817B68B7F8B1
:1021DC00BE20DA857B68DB6B9B69202B00F0888046
:1021EC007B681B680C33C7F88830D7F8883053E805
:1021FC00003FC7F88430D7F8843023F48073C7F8D5
:10220C00B8307B681B680C33D7F8B820C7F894201B
:10221C00C7F89030D7F89010D7F8942041E80023F5
:10222C00C7F88C30D7F88C30002BD9D17B681B6861
:10223C0014337B677B6F53E8003F3B673B6F23F0A6
:10224C000103C7F8B4307B681B681433D7F8B4208B
:10225C00C7F88020FB67F96FD7F8802041E800238E
:10226C00BB67BB6F002BE1D17B681B6814333B66EB
:10227C003B6E53E8003FFB65FB6D23F04003C7F852
:10228C00B0307B681B681433D7F8B020FA66BB6695
:10229C00B96EFA6E41E800237B667B6E002BE3D1AE
:1022AC007B68202283F842207B6800221A637B68BB
:1022BC001B680C33FB64FB6C53E8003FBB64BB6CCA
:1022CC0023F01003C7F8AC307B681B680C33D7F8CD
:1022DC00AC20BA657B65796DBA6D41E800233B652E
:1022EC003B6D002BE3D17B68DB6B1846FFF70AF9DB
:1022FC007B6802225A637B689A8D7B68DB8D9BB26C
:10230C00D31A9BB21946786800F0BFF89CE000BF66
:10231C00232600087B689A8D7B68DB8D9BB2D31AD1
:10232C00A7F8CE307B68DB8D9BB2002B00F08E8043
:10233C00B7F8CE30002B00F089807B681B680C331B
:10234C00BB63BB6B53E8003F7B637B6B23F49073E5
:10235C00C7F8C8307B681B680C33D7F8C8207A6480
:10236C003B64396C7A6C41E80023FB63FB6B002BFC
:10237C00E3D17B681B6814337B627B6A53E8003FB4
:10238C003B623B6A23F00103C7F8C4307B681B68CF
:10239C001433D7F8C4203A63FB62F96A3A6B41E80C
:1023AC000023BB62BB6A002BE3D17B68202283F83D
:1023BC0042207B6800221A637B681B680C333B61EC
:1023CC003B6953E8003FFB60FB6823F01003C7F840
:1023DC00C0307B681B680C33D7F8C020FA61BB6136
:1023EC00B969FA6941E800237B617B69002BE3D171
:1023FC007B6802225A63B7F8CE301946786800F031
:10240C0044F823E0D7F8E43003F08003002B09D024
:10241C00D7F8E03003F08003002B03D0786800F08D
:10242C000EF914E0D7F8E43003F04003002B0ED083
:10243C00D7F8E03003F04003002B08D0786800F0A8
:10244C004DF904E000BF02E000BF00E000BFE83738
:10245C00BD4680BD80B483B000AF786000BF0C3740
:10246C00BD4680BC704780B483B000AF786000BFBD
:10247C000C37BD4680BC704780B483B000AF786029
:10248C0000BF0C37BD4680BC704780B483B000AF32
:10249C0078600B467B8000BF0C37BD4680BC704714
:1024AC0080B586B000AFF860B9603B601346FB7135
:1024BC003BE03B6AB3F1FF3F37D0FEF7F7F902463A
:1024CC003B68D31A3A6A9A4202D33B6A002B01D179
:1024DC0003233AE0FB681B68DB6803F00403002B62
:1024EC0023D0BB68802B20D0BB68402B1DD0FB6851
:1024FC001B681B6803F00803082B16D100237B61B3
:10250C00FB681B681B687B61FB681B685B687B61F5
:10251C007B69F86800F01DF8FB6808225A64FB68B8
:10252C00002283F8402001230FE0FB681B681A6827
:10253C00BB681340BA689A420CBF01230023DBB27C
:10254C001A46FB799A42B4D0002318461837BD4678
:10255C0080BD80B495B000AF78607B681B680C338D
:10256C007B637B6B53E8003F3B633B6B23F49073C3
:10257C00FB647B681B680C33FA6C3A64FB63F96B85
:10258C003A6C41E80023BB63BB6B002BE5D17B6845
:10259C001B6814333B623B6A53E8003FFB61FB69E9
:1025AC0023F00103BB647B681B681433BA6CFA62BA
:1025BC00BB62B96AFA6A41E800237B627B6A002B32
:1025CC00E5D17B681B6B012B19D17B681B680C3325
:1025DC00FB60FB6853E8003FBB60BB6823F0100353
:1025EC007B647B681B680C337A6CBA617B6179699C
:1025FC00BA6941E800233B613B69002BE5D17B685C
:10260C00202283F842207B6800221A6300BF5437D3
:10261C00BD4680BC704780B584B000AF78607B68E5
:10262C005B6AFB60FB680022DA85FB680022DA84B7
:10263C00F868FFF721FF00BF1037BD4680BD80B49E
:10264C0085B000AF78607B6893F84130DBB2212B0A
:10265C003ED17B689B68B3F5805F14D17B681B69A6
:10266C00002B10D17B681B6AFB60FB681B881A4629
:10267C007B681B68C2F308025A607B681B6A9A1C51
:10268C007B681A6208E07B681B6A591C7A681162C5
:10269C001A787B681B685A607B68DB8C9BB2013BA9
:1026AC009BB27A681946D184002B0FD17B681B68CA
:1026BC00DA687B681B6822F08002DA607B681B6832
:1026CC00DA687B681B6842F04002DA60002300E0A5
:1026DC00022318461437BD4680BC704780B582B0C3
:1026EC0000AF78607B681B68DA687B681B6822F037
:1026FC004002DA607B68202283F841207868FFF77B
:10270C00A9FE002318460837BD4680BD80B58CB0A5
:10271C0000AF78607B6893F84230DBB2222B40F03C
:10272C00AE807B689B68B3F5805F17D17B681B69B3
:10273C00002B13D10023FB627B689B6ABB627B6816
:10274C001B685B689BB2C3F308039AB2BB6A1A801E
:10275C007B689B6A9A1C7B689A6226E07B689B6A02
:10276C00FB620023BB627B689B68B3F5805F07D07C
:10277C007B689B68002B0AD17B681B69002B06D1F8
:10278C007B681B685B68DAB2FB6A1A7008E07B68CE
:10279C001B685B68DBB203F07F03DAB2FB6A1A706A
:1027AC007B689B6A5A1C7B689A627B68DB8D9BB248
:1027BC00013B9BB27A681946D185002B5DD17B68B1
:1027CC001B68DA687B681B6822F02002DA607B6881
:1027DC001B68DA687B681B6822F48072DA607B689D
:1027EC001B685A697B681B6822F001025A617B687E
:1027FC00202283F842207B6800225A637B681B6B83
:10280C00012B35D17B6800221A637B681B680C3363
:10281C007B617B6953E8003F3B613B6923F010030C
:10282C007B627B681B680C337A6A3A62FB61F969DC
:10283C003A6A41E80023BB61BB69002BE5D17B6898
:10284C001B681B6803F01003102B0AD10023FB60DC
:10285C007B681B681B68FB607B681B685B68FB60A4
:10286C00FB687B689B8D19467868FFF70EFE02E0CB
:10287C007868FFF7F8FD002302E0002300E0022354
:10288C0018463037BD4680BD80B584B000AF786047
:10289C007B681B681B6923F440517B68DA687B6892
:1028AC001B680A431A617B689A687B681B691A4328
:1028BC007B685B691343BB607B681B68DB6823F434
:1028CC00B05323F00C037A681268B9680B43D360D9
:1028DC007B681B685B6923F440717B689A697B6831
:1028EC001B680A435A617B681B682C4A934203D1CC
:1028FC00FEF7E8FBF86002E0FEF7D0FBF860FA6840
:10290C0013469B0013449A001A447B685B689B0037
:10291C00B2FBF3F3224AA2FB03235B091901FA6809
:10292C0013469B0013449A001A447B685B689B0017
:10293C00B2FBF3F21A4BA3FB02035B09642000FB0E
:10294C0003F3D31A1B013233154AA2FB03235B0991
:10295C0003F0F0031944FA6813469B0013449A00E1
:10296C001A447B685B689B00B2FBF3F20C4BA3FB35
:10297C0002035B09642000FB03F3D31A1B013233FF
:10298C00074AA2FB03235B0903F00F027B681B6859
:10299C000A449A6000BF1037BD4680BD0038014024
:1029AC001F85EB51F0B59BB012AF4FF00003FB61EC
:1029BC00FDF724FF00F074F800F08EF900F06EF9CA
:1029CC0000F0B4F800F0E0F800F014F900F03CF975
:1029DC003B1D3149184600F095FD3B1D184600F093
:1029EC0027FD3B1D184600F045FD3B1D184600F029
:1029FC007DFCFB7C3B70BB7C7B707F23BB703B1DE9
:102A0C00184600F015FD3B1D184600F061FD3A46D6
:102A1C003B1D1146184600F0E5FC3B1D184600F026
:102A2C0007FD3B1D184600F053FD3B1D01211846C8
:102A3C0000F018FC3B1D184600F0FAFC3B1D184634
:102A4C0000F046FD3B1D184600F050FCBB69FB61D5
:102A5C00124E4FF0000311934FF0000310934FF000
:102A6C0000030F93FB690E936D4606F110040FCC17
:102A7C000FC50FCC0FC50FCC0FC594E8030085E82C
:102A8C00030096E80F0000F051FD4FF47A70FDF74B
:102A9C0017FF00BFC1E700BFEC000020340100208D
:102AAC0080B590B000AF07F118032822002118461A
:102ABC00FDF72EFD3B1D00221A605A609A60DA6009
:102ACC001A610123BB614FF48033FB6100233B622D
:102ADC000123BB6202237B634FF48033BB6300236F
:102AEC00FB6307F118031846FDF70EFF0346002B96
:102AFC0001D000F03BF90F237B600223BB60002365
:102B0C00FB604FF480633B614FF480637B613B1D42
:102B1C0000211846FEF77AF90346002B01D000F08D
:102B2C0025F900BF4037BD4680BD000080B500AF21
:102B3C00124B134A1A60114B124A5A600F4B002267
:102B4C009A600E4B0022DA600C4B4FF480421A61F3
:102B5C000A4B00225A61094B00229A61074B002252
:102B6C00DA61064B00221A620448FDF703FD0346A6
:102B7C00002B01D000F0FAF800BF80BD400000200F
:102B8C0000540040A086010080B500AF174B184AD6
:102B9C001A60164B4FF482725A60144B00229A60E2
:102BAC00124B0022DA60114B00221A610F4B0022EB
:102BBC005A610E4B4FF400729A610C4B0022DA6191
:102BCC000A4B00221A62094B00225A62074B002260
:102BDC009A62064B0A22DA620448FEF75AFF034651
:102BEC00002B01D000F0C2F800BF80BD9400002083
:102BFC000030014080B500AF114B124A1A60104BE7
:102C0C004FF4E1325A600E4B00229A600C4B0022BA
:102C1C00DA600B4B00221A61094B0C225A61084BEB
:102C2C0000229A61064B0022DA610548FFF705F88D
:102C3C000346002B01D000F099F800BF80BD00BF07
:102C4C00EC0000200038014080B500AF114B124A57
:102C5C001A60104B4FF416525A600E4B00229A60B9
:102C6C000C4B0022DA600B4B00221A61094B0C2230
:102C7C005A61084B00229A61064B0022DA61054822
:102C8C00FEF78BFF0346002B01D000F06FF800BF5E
:102C9C0080BD00BF340100200044004080B582B0EC
:102CAC0000AF0C4B5B690B4A43F001035361094BBA
:102CBC005B6903F001037B607B680022002110201C
:102CCC00FEF7B1FE1020FEF7CAFE00BF0837BD4666
:102CDC0080BD00BF0010024080B588B000AF07F186
:102CEC00100300221A605A609A60DA601D4B9B69CF
:102CFC001C4A43F0200393611A4B9B6903F0200399
:102D0C00FB60FB68174B9B69164A43F00403936105
:102D1C00144B9B6903F00403BB60BB68114B9B69AC
:102D2C00104A43F0080393610E4B9B6903F00803B0
:102D3C007B607B68002210210B48FEF771FB10238F
:102D4C003B6101237B610023BB610223FB6107F123
:102D5C00100319460448FEF7E7F900BF2037BD46BB
:102D6C0080BD00BF001002400008014080B400AFDD
:102D7C0072B600BF00BFFDE780B400AF00BFFDE737
:102D8C0080B400AF00BFFDE780B400AF00BFFDE72B
:102D9C0080B400AF00BFFDE780B400AF00BFFDE71B
:102DAC0080B400AF00BFBD4680BC704780B400AF9C
:102DBC0000BFBD4680BC704780B400AF00BFBD46AD
:102DCC0080BC704780B500AFFDF75EFD00BF80BDD5
:102DDC0080B500AF0248FEF749FC00BF80BD00BFC4
:102DEC007C01002080B500AF0248FFF7A1F800BFBE
:102DFC0080BD00BF3401002080B485B000AF154BFE
:102E0C009B69144A43F001039361124B9B6903F0D5
:102E1C000103BB60BB680F4BDB690E4A43F0805368
:102E2C00D3610C4BDB6903F080537B607B680A4BEE
:102E3C005B68FB60FB6823F0E063FB60FB6843F0BE
:102E4C000073FB60044AFB68536000BF1437BD4637
:102E5C0080BC7047001002400000014080B588B073
:102E6C0000AF786007F1100300221A605A609A6074
:102E7C00DA607B681B68164A934225D1154B9B6917
:102E8C00144A43F008039361124B9B6903F0080347
:102E9C00FB60FB68C0233B6112237B610023BB6199
:102EAC000323FB6107F1100319460B48FEF73CF9AD
:102EBC00084BDB69074A43F40013D361054BDB690C
:102ECC0003F40013BB60BB6800BF2037BD4680BD58
:102EDC000054004000100240000C014080B588B046
:102EEC0000AF786007F1100300221A605A609A60F4
:102EFC00DA607B681B681B4A93422FD11A4B9B6983
:102F0C00194A43F480539361174B9B6903F4805324
:102F1C00FB60FB68144B9B69134A43F004039361F9
:102F2C00114B9B6903F00403BB60BB68A0233B619E
:102F3C0002237B610323FB6107F1100319460B4845
:102F4C00FEF7F2F840233B6100237B610023BB6159
:102F5C0007F1100319460548FEF7E6F800BF2037C5
:102F6C00BD4680BD00300140001002400008014009
:102F7C0080B58AB000AF786007F1180300221A60A0
:102F8C005A609A60DA607B681B68494A934227D181
:102F9C00484B9B69474A43F480439361454B9B697B
:102FAC0003F480437B617B69424B9B69414A43F04C
:102FBC00040393613F4B9B6903F004033B613B6942
:102FCC004FF40073BB611223FB6101233B620323AB
:102FDC007B6207F1180319463748FEF7A5F862E043
:102FEC007B681B68354A93425DD1324BDB69314AB1
:102FFC0043F40033D3612F4BDB6903F40033FB60E4
:10300C00FB682C4B9B692B4A43F004039361294BBF
:10301C009B6903F00403BB60BB680423BB61022300
:10302C00FB6103237B6207F1180319462248FEF764
:10303C007BF80823BB610023FB6100233B6207F193
:10304C00180319461C48FEF76FF81D4B1D4A1A60F1
:10305C001B4B00225A601A4B00229A60184B80229C
:10306C00DA60174B00221A61154B00225A61144B7F
:10307C0000229A61124B0022DA611148FEF7E8F93E
:10308C000346002B01D0FFF771FE7B680C4ADA6314
:10309C000B4A7B685362002200212620FEF7C3FCFA
:1030AC002620FEF7DCFC00BF2837BD4680BD00BFE4
:1030BC00003801400010024000080140004400406C
:1030CC007C0100206C000240FDF74EFA0B480C49C5
:1030DC000C4A002302E0D458C4500433C4188C4268
:1030EC00F9D3094A094C002301E013600432A242CF
:1030FC00FBD3FDF715FAFFF755FC704700000020D5
:10310C0020000020B038000820000020C001002062
:10311C00FEE780B485B000AF78600B46FB700023EF
:10312C00FB7322E07B685A1C7A601B78BB73082304
:10313C007B7317E0FA7BBB7B5340DBB203F00103DC
:10314C003B73FB7B5B08FB733B7B002B04D0FB7B53
:10315C0083F07303DB43FB73BB7B5B08BB737B7B31
:10316C00013B7B737B7B002BE4D1FB785A1EFA70FE
:10317C00002BD7D1FB7B18461437BD4680BC70475B
:10318C0090B587B000AFF860B9607A60FB685B7887
:10319C00002B01D1012344E0FB685B683A7A1146AD
:1031AC00184600F0DBFA7B7A002B26D00023FB7547
:1031BC000CE0FB685868FB7D7A68D418FF2100F09E
:1031CC00CDFA03462370FB7D0133FB757B7AFA7DC8
:1031DC009A42EED37B7A013BDBB219467868FFF753
:1031EC0098FF03467B757B7A013B7A6813441B7806
:1031FC007A7D9A4214D0012313E00023BB750BE0B7
:10320C00FB685868BB7D7A6813441B78194600F03C
:10321C00A5FABB7D0133BB75BB7ABA7D9A42EFD35D
:10322C00002318461C37BD4690BD80B584B000AF56
:10323C0078607B685B680121184600F06DFA0346E4
:10324C00FB7307E07B685B680121184600F064FAA9
:10325C000346FB73FB7BFF2BF4D100BF00BF103781
:10326C00BD4680BD80B584B000AF78600B46FB7066
:10327C0007F10A031C491A4609687868FFF780FFB2
:10328C000346FB72FB78012B02D17868FFF7CDFF68
:10329C00FB78022B22D10023FB607B681B7C7F2BED
:1032AC0014D07F2B16DC5F2B0CD05F2B12DC1F2B6A
:1032BC0002D03F2B03D00DE05E23FB600BE0BC2360
:1032CC00FB6008E040F27713FB6004E040F2EE2371
:1032DC00FB6000E000BFF868FDF7F2FAFB7A1846D5
:1032EC001037BD4680BD00BF1C00002080B586B0E5
:1032FC0000AF786007F1080339491A460968786805
:10330C00FFF73EFF03467B757B7D002B01D07B7D59
:10331C0061E0BA7A7B68DA73FA7A7B689A733A7BE3
:10332C007B681A747B7A1BB21B021AB23B7A1BB2F3
:10333C0013431BB2FB82FB8A23F4FF6323F00703C6
:10334C007B827B8A002B02D0FB8A5B42FB827B68F0
:10335C001B7C7F2B1DD07F2B20DC5F2B12D05F2B97
:10336C001CDC1F2B02D03F2B05D017E0FB8A03F48B
:10337C00FF63FB8217E0FB8A23F003035B055B0D05
:10338C00FB8210E0FB8A23F001035B055B0DFB82E3
:10339C0009E0FB8AC3F30A03FB8204E0FB8AC3F354
:1033AC000A03FB8200BFFB8A1846FDF713F803469D
:1033BC004FF076511846FCF7A3FE03461A467B687D
:1033CC005A617B8A002B05D07B685B6983F00042D5
:1033DC007B685A61002318461837BD4680BD00BF74
:1033EC001400002080B584B000AF786039600F4BBA
:1033FC003A6819687868FFF7C3FE0346FB73FB7BDA
:10340C00002B01D0FB7B0CE03B681A787B68DA73ED
:10341C003B685A787B689A733B689A787B681A7415
:10342C00FB7B18461037BD4680BD00BF180000203E
:10343C0080B584B000AF78607B681B78002B01D11D
:10344C00012312E07B685B68184600F0BDF9034667
:10345C00FB73FB7B002B04D17B6801225A70002389
:10346C0003E07B6800225A70012318461037BD46D2
:10347C0080BD000080B586B000AF786007F10C030A
:10348C0012491A4609687868FFF77AFE0346BB753D
:10349C00BB7D002B01D0BB7D14E00023FB750DE040
:1034AC00FB7D5A1CFB7D18323A4412F80C1C7A68CE
:1034BC0013440A461A72FB7D0133FB75FB7D052B09
:1034CC00EED9002318461837BD4680BD0C000020ED
:1034DC0080B584B000AF786007F10E0308491A4636
:1034EC0009687868FFF74CFE0346FB73FB7B002BE7
:1034FC0001D0FB7B00E0002318461037BD4680BD91
:10350C001000002080B483B000AF786039607B6815
:10351C0000225A707B683A685A607B6801221A70E4
:10352C0000BF0C37BD4680BC7047000084B080B52E
:10353C0000AF07F1080C8CE80F004FF0FF33182296
:10354C00154907F10800FEF7D0FB4FF0FF331522A9
:10355C00124907F10800FEF7C8FB07F150014FF0C4
:10356C00FF33042207F10800FEF7BFFB4FF0FF33D7
:10357C0002220B4907F10800FEF7B7FB4FF0FF33AF
:10358C001822054907F10800FEF7AFFB00BFBD4646
:10359C00BDE8804004B07047483800086038000827
:1035AC007838000880B584B000AF786039600023AB
:1035BC00FB607B683A685A607B681B68544A93428C
:1035CC0003D1FDF77FFDF86002E0FDF767FDF860C1
:1035DC007B68DB69002B4CD1FA6813469B001344C3
:1035EC009A001A447B685B685B00B2FBF3F3494AB0
:1035FC00A2FB03235B091901FA6813469B001344D1
:10360C009A001A447B685B685B00B2FBF3F2414B97
:10361C00A3FB02035B09642000FB03F3D31ADB005A
:10362C0032333C4AA2FB03235B095B0003F4F873BF
:10363C001944FA6813469B0013449A001A447B6899
:10364C005B685B00B2FBF3F2324BA3FB02035B093A
:10365C00642000FB03F3D31ADB0032332D4AA2FBA8
:10366C0003235B0903F007027B681B680A449A601A
:10367C004AE0FA6813469B0013449A001A447B688C
:10368C005B689B00B2FBF3F3224AA2FB03235B09AA
:10369C001901FA6813469B0013449A001A447B687C
:1036AC005B689B00B2FBF3F21A4BA3FB02035B09B2
:1036BC00642000FB03F3D31A1B013233154AA2FB1F
:1036CC0003235B0903F0F0031944FA6813469B00CB
:1036DC0013449A001A447B685B689B00B2FBF3F2BC
:1036EC000C4BA3FB02035B09642000FB03F3D31A0E
:1036FC001B013233074AA2FB03235B0903F00F02C1
:10370C007B681B680A449A6000BF1037BD4680BDB9
:10371C00003801401F85EB5180B584B000AF786054
:10372C000B46FB70FF23FB730023BB73FB78002B52
:10373C0001D10023FB7307F10F010A2301227868E2
:10374C00FEF7D3FA07F10E010A2301227868FEF77F
:10375C0057FBBB7B18461037BD4680BD80B584B087
:10376C0000AF78600B46FB700023FB730023BB7328
:10377C0022E0FA78BB7B42FA03F3DBB203F00103DD
:10378C003B7300237B733B7B19467868FFF7C4FFC0
:10379C000346FB72FB7AFF2B01D101237B737A7BEF
:1037AC00BB7B02FA03F35AB297F90F3013435BB2A7
:1037BC00FB73BB7B0133BB73BB7B072BD9D9FB7B67
:1037CC0018461037BD4680BD80B584B000AF786018
:1037DC000023FB73F023BB7300237B734FF4165150
:1037EC007868FFF7DFFE07F10E010A2301227868E3
:1037FC00FEF77BFA07F10D010A2301227868FEF728
:10380C00FFFA4FF4E1317868FFF7CCFE7A7BBB7B93
:10381C009A4201D10123FB73FB7B18461037BD463E
:10382C0080BD0000F8B500BFF8BC08BC9E467047D0
:0C383C00F8B500BFF8BC08BC9E46704701
:103848002D2D2D2D2D2D2D2D2D2D2D2D2D2D2D2DA0
:103858002D2D2D2D2D0D0A0054656D706572617426
:1038680075726520445331384232303A20000000E6
:103878000D0A00000000000000000000010203041F
:1038880006070809000000000102030402030405FA
:10389800060708090A0B0C0D0E0F10100102000094
:0438A800F904000817
:0438AC00D10400083B
:1038B00000127A0010000000010000003308000030
:1038C000CC000000BE0900004E00030044000000D0
:04000005080030D5EA
:00000001FF
